:060000000A128A110C280F
:10000800FE00030EF2000A08F3000A128A110C2AF5
:100018000A128A110F280A128A1156220A128A1104
:10002800A700A001A101A201A30183010A128A115C
:100038001D280A128A1161210A128A1183120313D8
:100048009F182728282844281F0CA400240C0F399F
:100058000C3A031D3028312836281F08C3392838A0
:100068009F003A281F08C33930389F000730831291
:100078000313A400A40B3E280000831203139F144B
:1000880037300A128A11E7210A128A110A128A11D4
:100098004E220A128A1183120313A200A3015830B8
:1000A800F40022300A128A11BB210A128A1174083C
:1000B8007504031D6028612866288312031320082D
:1000C800880022285A30F40022300A128A11BB21F3
:1000D8000A128A1174087504031D73287428A62847
:1000E80002300A128A11E7210A128A110A128A11A9
:1000F8004E220A128A1183120313A50025080A1238
:100108008A1142220A128A110A128A114E220A12EE
:100118008A1183120313A60026080A128A114222A2
:100128000A128A110A30F4008312031325080A12EE
:100138008A112D220A128A11831203132607F03E10
:100148008800222883120313880122280A128A11A0
:020158000C2871
:1002000001308A000408840A8207003441344934EA
:100210006E34673472346534733465342034653435
:100220006C3420346E3475346D34653472346F340C
:10023000203464346534203463346134723461347E
:100240006334743465347234203465346E3420344D
:10025000413453344334493449342034283432341B
:100260002034643469346734693474346F347334DB
:1002700029343A342034003431342E3420344C3490
:10028000653465347234203470346F3474342E34F1
:1002900020340D340A3432342E34203445346E3454
:1002A00076346934613472342034413473346334C5
:1002B000693469340D340A34003431340034323452
:1002C0000034831603178801033089008316031353
:1002D00085018312031385010330831603138600FF
:1002E00003308312031386008316031388018312DD
:1002F00003138801831603130F088F3940388F00CA
:100300000F14181218158316031787151930831642
:10031000031399009A0183120313981718131816E0
:10032000831603139816831203131F083F394038AE
:100330009F00831603131F129F12831203131F08BB
:10034000C33930389F00831603139F130330F40022
:10035000F40BA829AB29831203131F140C13831663
:1003600003130C17831203138C12831603138C12BE
:100370000B178B170800F900C5290130F600760825
:10038000F9070130F6007608F407740884000A12B1
:100390008A1100210A128A11F60079088400831359
:1003A0000008F70076087702F8007808031DD929BD
:1003B000DA29E129790884000008031DE029E129F0
:1003C000BD297808F400F501F41BF5030800F700D7
:1003D000F501F601FE297508770784000A128A11D3
:1003E00000210A128A110A128A1142220A128A1163
:1003F0000130F5070318F60A0030F607750877078D
:1004000084000A128A1100210A128A11003A031D7F
:100410000A2A0B2AEB290800831203130C1F112A46
:10042000122A262A1F0CF000700C0F390C3A031DFB
:100430001A2A1B2A1E2A1E088500252A1E08F000DB
:10044000F1017008A0007108A1000C1373088A0064
:10045000720E8300FE0E7E0E0900F700F601771C77
:10046000322A332A372A7408F5007508F607031074
:10047000F40D0310F70C7708031D3F2A402A2F2A9A
:1004800076080800F40083160313981C482A492AAA
:10049000432A74088312031399000800831203137C
:0E04A0008C1E532A542A4E2A1A08080037349C
:08400000FF3FFF3FFF3FFF3FC0
:04400E00D420FF3F7C
:00000001FF
